{
  "contractName": "Contrato",
  "abi": [
    {
      "inputs": [],
      "payable": false,
      "stateMutability": "nonpayable",
      "type": "constructor"
    },
    {
      "anonymous": false,
      "inputs": [
        {
          "indexed": false,
          "internalType": "string",
          "name": "_description",
          "type": "string"
        },
        {
          "indexed": false,
          "internalType": "address",
          "name": "_constituentAddress",
          "type": "address"
        }
      ],
      "name": "setServiceEvent",
      "type": "event"
    },
    {
      "constant": true,
      "inputs": [],
      "name": "totalMission",
      "outputs": [
        {
          "internalType": "uint256",
          "name": "",
          "type": "uint256"
        }
      ],
      "payable": false,
      "stateMutability": "view",
      "type": "function"
    },
    {
      "constant": false,
      "inputs": [
        {
          "internalType": "string",
          "name": "_serviceDescription",
          "type": "string"
        }
      ],
      "name": "setService",
      "outputs": [],
      "payable": false,
      "stateMutability": "nonpayable",
      "type": "function"
    },
    {
      "constant": true,
      "inputs": [
        {
          "internalType": "uint256",
          "name": "_serviceCode",
          "type": "uint256"
        }
      ],
      "name": "getService",
      "outputs": [
        {
          "internalType": "address",
          "name": "",
          "type": "address"
        },
        {
          "internalType": "string",
          "name": "",
          "type": "string"
        }
      ],
      "payable": false,
      "stateMutability": "view",
      "type": "function"
    },
    {
      "constant": false,
      "inputs": [
        {
          "internalType": "string",
          "name": "_missionDescription",
          "type": "string"
        },
        {
          "internalType": "uint256",
          "name": "_missionCodeFather",
          "type": "uint256"
        }
      ],
      "name": "setMission",
      "outputs": [],
      "payable": false,
      "stateMutability": "nonpayable",
      "type": "function"
    },
    {
      "constant": true,
      "inputs": [
        {
          "internalType": "uint256",
          "name": "_missionCode",
          "type": "uint256"
        }
      ],
      "name": "getMission",
      "outputs": [
        {
          "internalType": "string",
          "name": "",
          "type": "string"
        },
        {
          "internalType": "uint256",
          "name": "",
          "type": "uint256"
        },
        {
          "internalType": "address",
          "name": "",
          "type": "address"
        }
      ],
      "payable": false,
      "stateMutability": "view",
      "type": "function"
    }
  ],
  "bytecode": "0x608060405234801561001057600080fd5b506000600181905550610aa2806100286000396000f3fe608060405234801561001057600080fd5b50600436106100575760003560e01c806320c32d761461005c578063217d0d57146101175780639da1e84d146101dc578063eb2b94b5146101fa578063ef0e239b146102db575b600080fd5b6101156004803603602081101561007257600080fd5b810190808035906020019064010000000081111561008f57600080fd5b8201836020820111156100a157600080fd5b803590602001918460018302840111640100000000831117156100c357600080fd5b91908080601f016020809104026020016040519081016040528093929190818152602001838380828437600081840152601f19601f8201169050808301925050505050505091929192905050506103b5565b005b6101da6004803603604081101561012d57600080fd5b810190808035906020019064010000000081111561014a57600080fd5b82018360208201111561015c57600080fd5b8035906020019184600183028401116401000000008311171561017e57600080fd5b91908080601f016020809104026020016040519081016040528093929190818152602001838380828437600081840152601f19601f820116905080830192505050505050509192919290803590602001909291905050506105ec565b005b6101e46106c2565b6040518082815260200191505060405180910390f35b6102266004803603602081101561021057600080fd5b81019080803590602001909291905050506106cc565b60405180806020018481526020018373ffffffffffffffffffffffffffffffffffffffff1673ffffffffffffffffffffffffffffffffffffffff168152602001828103825285818151815260200191508051906020019080838360005b8381101561029e578082015181840152602081019050610283565b50505050905090810190601f1680156102cb5780820380516001836020036101000a031916815260200191505b5094505050505060405180910390f35b610307600480360360208110156102f157600080fd5b81019080803590602001909291905050506107de565b604051808373ffffffffffffffffffffffffffffffffffffffff1673ffffffffffffffffffffffffffffffffffffffff16815260200180602001828103825283818151815260200191508051906020019080838360005b8381101561037957808201518184015260208101905061035e565b50505050905090810190601f1680156103a65780820380516001836020036101000a031916815260200191505b50935050505060405180910390f35b600081511161042c576040517f08c379a00000000000000000000000000000000000000000000000000000000081526004018080602001828103825260198152602001807f4572726f7220646573637269706369c3b36e20766163c3ad610000000000000081525060200191505060405180910390fd5b6000610447600160008054905061097790919063ffffffff16565b9050600060405180606001604052808381526020013373ffffffffffffffffffffffffffffffffffffffff16815260200184815250908060018154018082558091505090600182039060005260206000209060030201600090919290919091506000820151816000015560208201518160010160006101000a81548173ffffffffffffffffffffffffffffffffffffffff021916908373ffffffffffffffffffffffffffffffffffffffff1602179055506040820151816002019080519060200190610514929190610991565b505050507fd7ae28929ccac45b17d48bdf5d4d01694a58f11c7532d0e3b69821acac562214823360405180806020018373ffffffffffffffffffffffffffffffffffffffff1673ffffffffffffffffffffffffffffffffffffffff168152602001828103825284818151815260200191508051906020019080838360005b838110156105ad578082015181840152602081019050610592565b50505050905090810190601f1680156105da5780820380516001836020036101000a031916815260200191505b50935050505060405180910390a15050565b6106016001805461097790919063ffffffff16565b60018190555060405180606001604052808381526020018281526020013373ffffffffffffffffffffffffffffffffffffffff168152506002600060015481526020019081526020016000206000820151816000019080519060200190610669929190610991565b506020820151816001015560408201518160020160006101000a81548173ffffffffffffffffffffffffffffffffffffffff021916908373ffffffffffffffffffffffffffffffffffffffff1602179055509050505050565b6000600154905090565b60606000806002600085815260200190815260200160002060000160026000868152602001908152602001600020600101546002600087815260200190815260200160002060020160009054906101000a900473ffffffffffffffffffffffffffffffffffffffff16828054600181600116156101000203166002900480601f0160208091040260200160405190810160405280929190818152602001828054600181600116156101000203166002900480156107ca5780601f1061079f576101008083540402835291602001916107ca565b820191906000526020600020905b8154815290600101906020018083116107ad57829003601f168201915b505050505092509250925092509193909250565b600060606107ea610a11565b60008090505b60008054905081101561095f57846000828154811061080b57fe5b9060005260206000209060030201600001541415610952576000818154811061083057fe5b9060005260206000209060030201604051806060016040529081600082015481526020016001820160009054906101000a900473ffffffffffffffffffffffffffffffffffffffff1673ffffffffffffffffffffffffffffffffffffffff1673ffffffffffffffffffffffffffffffffffffffff168152602001600282018054600181600116156101000203166002900480601f0160208091040260200160405190810160405280929190818152602001828054600181600116156101000203166002900480156109425780601f1061091757610100808354040283529160200191610942565b820191906000526020600020905b81548152906001019060200180831161092557829003601f168201915b505050505081525050915061095f565b80806001019150506107f0565b81602001518260400151809050935093505050915091565b600081830190508281101561098857fe5b80905092915050565b828054600181600116156101000203166002900490600052602060002090601f016020900481019282601f106109d257805160ff1916838001178555610a00565b82800160010185558215610a00579182015b828111156109ff5782518255916020019190600101906109e4565b5b509050610a0d9190610a48565b5090565b604051806060016040528060008152602001600073ffffffffffffffffffffffffffffffffffffffff168152602001606081525090565b610a6a91905b80821115610a66576000816000905550600101610a4e565b5090565b9056fea265627a7a72315820fa3b288de32d99a4428b1e7ea3491d40e7279303ef021e4cd98783a3a00728bf64736f6c63430005100032",
  "source": "pragma solidity  >=0.5.16 <0.7.0;\r\n\r\nlibrary SafeMath {\r\n    function add(uint256 a, uint256 b) internal pure returns (uint256 c) {\r\n        c = a + b;\r\n        assert(c >= a);\r\n        return c;\r\n    }\r\n    function sub(uint256 a, uint256 b) internal pure returns (uint256) {\r\n        assert(b <= a);\r\n        return a - b;\r\n    }\r\n    function mul(uint256 a, uint256 b) internal pure returns (uint256 c) {\r\n        if (a == 0) {\r\n            return 0;\r\n        }\r\n        c = a * b;\r\n        assert(c / a == b);\r\n        return c;\r\n    }\r\n    function div(uint256 a, uint256 b) internal pure returns (uint256) {\r\n        assert(b>0);\r\n        return a / b;\r\n    }\r\n}\r\n\r\ncontract Contrato{\r\n    using SafeMath for uint;\r\n\r\n    struct Service {\r\n        uint serviceCode;\r\n        address serviceConstituentAddress;\r\n        string serviceDescription;\r\n    }\r\n    struct Mission {\r\n        string missionDescription;\r\n        uint missionCodeFather;\r\n        address missionConstituentAddress;\r\n    }\r\n\r\n    Service[] private serviceList;\r\n    uint private _totalMission;\r\n    mapping(uint => Mission) private missionMap;\r\n \r\n    constructor() public {\r\n        _totalMission = 0;\r\n    }\r\n\r\n    function totalMission() public view returns (uint) {\r\n        return _totalMission;\r\n    }\r\n\r\n    event setServiceEvent(string _description, address _constituentAddress);\r\n \r\n    function setService(string memory _serviceDescription) public {\r\n        require(bytes(_serviceDescription).length > 0,\"Error descripción vacía\");\r\n        uint _serviceCode = serviceList.length.add(1);\r\n        serviceList.push(Service(_serviceCode, msg.sender, _serviceDescription));\r\n        emit setServiceEvent(_serviceDescription, msg.sender);\r\n    }\r\n    \r\n    function getService(uint  _serviceCode) public view returns (address, string memory) {\r\n        Service memory _service;\r\n        uint _i;\r\n        for(_i=0; _i<serviceList.length; _i++)\r\n        {\r\n            if(serviceList[_i].serviceCode==_serviceCode)\r\n            {\r\n                _service=serviceList[_i];\r\n                break;\r\n            }\r\n        }\r\n        return (_service.serviceConstituentAddress, _service.serviceDescription);\r\n    }\r\n\r\n    function setMission(string memory _missionDescription, uint _missionCodeFather) public {\r\n        _totalMission = _totalMission.add(1);\r\n        missionMap[_totalMission] = Mission(_missionDescription, _missionCodeFather, msg.sender);\r\n    }\r\n\r\n    function getMission(uint  _missionCode) public view returns (string memory, uint, address) {\r\n        return (missionMap[_missionCode].missionDescription,\r\n            missionMap[_missionCode].missionCodeFather, missionMap[_missionCode].missionConstituentAddress);\r\n    }\r\n\r\n}",
  "sourcePath": "D:\\Dropbox\\07_solidityProjects\\2020_Contrato_Web3_React\\src\\contracts\\Contrato.sol",
  "compiler": {
    "name": "solc",
    "version": "0.5.16+commit.9c3226ce.Emscripten.clang"
  },
  "schemaVersion": "3.0.23",
  "updatedAt": "2020-02-23T22:05:41.991Z",
  "networkType": "ethereum",
  "devdoc": {
    "methods": {}
  },
  "userdoc": {
    "methods": {}
  }
}