{
  "contractName": "Contrato",
  "abi": [
    {
      "anonymous": false,
      "inputs": [
        {
          "indexed": false,
          "internalType": "string",
          "name": "_description",
          "type": "string"
        },
        {
          "indexed": false,
          "internalType": "address",
          "name": "_constituentAddress",
          "type": "address"
        }
      ],
      "name": "setServiceEvent",
      "type": "event"
    },
    {
      "constant": false,
      "inputs": [
        {
          "internalType": "string",
          "name": "_serviceDescription",
          "type": "string"
        }
      ],
      "name": "setService",
      "outputs": [],
      "payable": false,
      "stateMutability": "nonpayable",
      "type": "function"
    },
    {
      "constant": false,
      "inputs": [
        {
          "internalType": "uint256",
          "name": "_missionCode",
          "type": "uint256"
        },
        {
          "internalType": "string",
          "name": "_missionDescription",
          "type": "string"
        },
        {
          "internalType": "uint256",
          "name": "_missionCodeFather",
          "type": "uint256"
        }
      ],
      "name": "setMission",
      "outputs": [],
      "payable": false,
      "stateMutability": "nonpayable",
      "type": "function"
    },
    {
      "constant": true,
      "inputs": [
        {
          "internalType": "uint256",
          "name": "_serviceCode",
          "type": "uint256"
        }
      ],
      "name": "getService",
      "outputs": [
        {
          "internalType": "address",
          "name": "",
          "type": "address"
        },
        {
          "internalType": "string",
          "name": "",
          "type": "string"
        }
      ],
      "payable": false,
      "stateMutability": "view",
      "type": "function"
    }
  ],
  "bytecode": "0x608060405234801561001057600080fd5b50610826806100206000396000f3fe608060405234801561001057600080fd5b50600436106100415760003560e01c806320c32d761461004657806333bfb53714610101578063ef0e239b146101d0575b600080fd5b6100ff6004803603602081101561005c57600080fd5b810190808035906020019064010000000081111561007957600080fd5b82018360208201111561008b57600080fd5b803590602001918460018302840111640100000000831117156100ad57600080fd5b91908080601f016020809104026020016040519081016040528093929190818152602001838380828437600081840152601f19601f8201169050808301925050505050505091929192905050506102aa565b005b6101ce6004803603606081101561011757600080fd5b81019080803590602001909291908035906020019064010000000081111561013e57600080fd5b82018360208201111561015057600080fd5b8035906020019184600183028401116401000000008311171561017257600080fd5b91908080601f016020809104026020016040519081016040528093929190818152602001838380828437600081840152601f19601f820116905080830192505050505050509192919290803590602001909291905050506104e1565b005b6101fc600480360360208110156101e657600080fd5b8101908080359060200190929190505050610562565b604051808373ffffffffffffffffffffffffffffffffffffffff1673ffffffffffffffffffffffffffffffffffffffff16815260200180602001828103825283818151815260200191508051906020019080838360005b8381101561026e578082015181840152602081019050610253565b50505050905090810190601f16801561029b5780820380516001836020036101000a031916815260200191505b50935050505060405180910390f35b6000815111610321576040517f08c379a00000000000000000000000000000000000000000000000000000000081526004018080602001828103825260198152602001807f4572726f7220646573637269706369c3b36e20766163c3ad610000000000000081525060200191505060405180910390fd5b600061033c60016000805490506106fb90919063ffffffff16565b9050600060405180606001604052808381526020013373ffffffffffffffffffffffffffffffffffffffff16815260200184815250908060018154018082558091505090600182039060005260206000209060030201600090919290919091506000820151816000015560208201518160010160006101000a81548173ffffffffffffffffffffffffffffffffffffffff021916908373ffffffffffffffffffffffffffffffffffffffff1602179055506040820151816002019080519060200190610409929190610715565b505050507fd7ae28929ccac45b17d48bdf5d4d01694a58f11c7532d0e3b69821acac562214823360405180806020018373ffffffffffffffffffffffffffffffffffffffff1673ffffffffffffffffffffffffffffffffffffffff168152602001828103825284818151815260200191508051906020019080838360005b838110156104a2578082015181840152602081019050610487565b50505050905090810190601f1680156104cf5780820380516001836020036101000a031916815260200191505b50935050505060405180910390a15050565b60016040518060600160405280858152602001848152602001838152509080600181540180825580915050906001820390600052602060002090600302016000909192909190915060008201518160000155602082015181600101908051906020019061054f929190610715565b5060408201518160020155505050505050565b6000606061056e610795565b60008090505b6000805490508110156106e357846000828154811061058f57fe5b90600052602060002090600302016000015414156106d657600081815481106105b457fe5b9060005260206000209060030201604051806060016040529081600082015481526020016001820160009054906101000a900473ffffffffffffffffffffffffffffffffffffffff1673ffffffffffffffffffffffffffffffffffffffff1673ffffffffffffffffffffffffffffffffffffffff168152602001600282018054600181600116156101000203166002900480601f0160208091040260200160405190810160405280929190818152602001828054600181600116156101000203166002900480156106c65780601f1061069b576101008083540402835291602001916106c6565b820191906000526020600020905b8154815290600101906020018083116106a957829003601f168201915b50505050508152505091506106e3565b8080600101915050610574565b81602001518260400151809050935093505050915091565b600081830190508281101561070c57fe5b80905092915050565b828054600181600116156101000203166002900490600052602060002090601f016020900481019282601f1061075657805160ff1916838001178555610784565b82800160010185558215610784579182015b82811115610783578251825591602001919060010190610768565b5b50905061079191906107cc565b5090565b604051806060016040528060008152602001600073ffffffffffffffffffffffffffffffffffffffff168152602001606081525090565b6107ee91905b808211156107ea5760008160009055506001016107d2565b5090565b9056fea265627a7a723158202bcf3a2e703bbbe9275b64c56b6c266aa9cd57e2c3b9f76f24f5cc79d92171e864736f6c63430005100032",
  "source": "pragma solidity  >=0.5.16 <0.7.0;\r\n\r\nlibrary SafeMath {\r\n    function add(uint256 a, uint256 b) internal pure returns (uint256 c) {\r\n        c = a + b;\r\n        assert(c >= a);\r\n        return c;\r\n    }\r\n    function sub(uint256 a, uint256 b) internal pure returns (uint256) {\r\n        assert(b <= a);\r\n        return a - b;\r\n    }\r\n    function mul(uint256 a, uint256 b) internal pure returns (uint256 c) {\r\n        if (a == 0) {\r\n            return 0;\r\n        }\r\n        c = a * b;\r\n        assert(c / a == b);\r\n        return c;\r\n    }\r\n    function div(uint256 a, uint256 b) internal pure returns (uint256) {\r\n        assert(b>0);\r\n        return a / b;\r\n    }\r\n}\r\n\r\ncontract Contrato{\r\n    using SafeMath for uint;\r\n\r\n    struct Service {\r\n        uint serviceCode;\r\n        address serviceConstituentAddress;\r\n        string serviceDescription;\r\n    }\r\n    struct Mission {\r\n        uint missionCode;\r\n        string missionDescription;\r\n        uint missionCodeFather;\r\n    }\r\n\r\n    Service[] private serviceList;\r\n    Mission[] private missionList;\r\n\r\n    mapping(address => Service[]) private serviceProviderMap;\r\n    mapping(address => Service[]) private serviceUsingMap;\r\n \r\n \r\n    event setServiceEvent(string _description, address _constituentAddress);\r\n \r\n    function setService(string memory _serviceDescription) public {\r\n        require(bytes(_serviceDescription).length > 0,\"Error descripción vacía\");\r\n        uint _serviceCode = serviceList.length.add(1);\r\n        serviceList.push(Service(_serviceCode, msg.sender, _serviceDescription));\r\n        emit setServiceEvent(_serviceDescription, msg.sender);\r\n    }\r\n\r\n    function setMission(uint _missionCode, string memory _missionDescription, uint _missionCodeFather) public {\r\n        missionList.push(Mission(_missionCode, _missionDescription, _missionCodeFather));\r\n    }\r\n    function getService(uint  _serviceCode) public view returns (address, string memory) {\r\n        Service memory _service;\r\n        uint _i;\r\n        for(_i=0; _i<serviceList.length; _i++)\r\n        {\r\n            if(serviceList[_i].serviceCode==_serviceCode)\r\n            {\r\n                _service=serviceList[_i];\r\n                break;\r\n            }\r\n        }\r\n        return (_service.serviceConstituentAddress, _service.serviceDescription);\r\n    }\r\n}",
  "sourcePath": "D:\\Dropbox\\07_solidityProjects\\2020_Contrato_Web3_React\\src\\contracts\\Contrato.sol",
  "compiler": {
    "name": "solc",
    "version": "0.5.16+commit.9c3226ce.Emscripten.clang"
  },
  "schemaVersion": "3.0.23",
  "updatedAt": "2020-02-23T15:35:44.067Z",
  "networkType": "ethereum",
  "devdoc": {
    "methods": {}
  },
  "userdoc": {
    "methods": {}
  }
}